{
  "_format": "hh-sol-artifact-1",
  "contractName": "MyEpicNFT",
  "sourceName": "contracts/MyEpicNFT.sol",
  "abi": [
    {
      "inputs": [],
      "stateMutability": "nonpayable",
      "type": "constructor"
    },
    {
      "anonymous": false,
      "inputs": [
        {
          "indexed": true,
          "internalType": "address",
          "name": "owner",
          "type": "address"
        },
        {
          "indexed": true,
          "internalType": "address",
          "name": "approved",
          "type": "address"
        },
        {
          "indexed": true,
          "internalType": "uint256",
          "name": "tokenId",
          "type": "uint256"
        }
      ],
      "name": "Approval",
      "type": "event"
    },
    {
      "anonymous": false,
      "inputs": [
        {
          "indexed": true,
          "internalType": "address",
          "name": "owner",
          "type": "address"
        },
        {
          "indexed": true,
          "internalType": "address",
          "name": "operator",
          "type": "address"
        },
        {
          "indexed": false,
          "internalType": "bool",
          "name": "approved",
          "type": "bool"
        }
      ],
      "name": "ApprovalForAll",
      "type": "event"
    },
    {
      "anonymous": false,
      "inputs": [
        {
          "indexed": false,
          "internalType": "address",
          "name": "sender",
          "type": "address"
        },
        {
          "indexed": false,
          "internalType": "uint256",
          "name": "tokenId",
          "type": "uint256"
        }
      ],
      "name": "NewEpicNFTMinted",
      "type": "event"
    },
    {
      "anonymous": false,
      "inputs": [
        {
          "indexed": true,
          "internalType": "address",
          "name": "from",
          "type": "address"
        },
        {
          "indexed": true,
          "internalType": "address",
          "name": "to",
          "type": "address"
        },
        {
          "indexed": true,
          "internalType": "uint256",
          "name": "tokenId",
          "type": "uint256"
        }
      ],
      "name": "Transfer",
      "type": "event"
    },
    {
      "inputs": [
        {
          "internalType": "address",
          "name": "to",
          "type": "address"
        },
        {
          "internalType": "uint256",
          "name": "tokenId",
          "type": "uint256"
        }
      ],
      "name": "approve",
      "outputs": [],
      "stateMutability": "nonpayable",
      "type": "function"
    },
    {
      "inputs": [
        {
          "internalType": "address",
          "name": "owner",
          "type": "address"
        }
      ],
      "name": "balanceOf",
      "outputs": [
        {
          "internalType": "uint256",
          "name": "",
          "type": "uint256"
        }
      ],
      "stateMutability": "view",
      "type": "function"
    },
    {
      "inputs": [
        {
          "internalType": "uint256",
          "name": "tokenId",
          "type": "uint256"
        }
      ],
      "name": "getApproved",
      "outputs": [
        {
          "internalType": "address",
          "name": "",
          "type": "address"
        }
      ],
      "stateMutability": "view",
      "type": "function"
    },
    {
      "inputs": [
        {
          "internalType": "address",
          "name": "owner",
          "type": "address"
        },
        {
          "internalType": "address",
          "name": "operator",
          "type": "address"
        }
      ],
      "name": "isApprovedForAll",
      "outputs": [
        {
          "internalType": "bool",
          "name": "",
          "type": "bool"
        }
      ],
      "stateMutability": "view",
      "type": "function"
    },
    {
      "inputs": [],
      "name": "makeAnEpicNFT",
      "outputs": [],
      "stateMutability": "nonpayable",
      "type": "function"
    },
    {
      "inputs": [],
      "name": "name",
      "outputs": [
        {
          "internalType": "string",
          "name": "",
          "type": "string"
        }
      ],
      "stateMutability": "view",
      "type": "function"
    },
    {
      "inputs": [
        {
          "internalType": "uint256",
          "name": "tokenId",
          "type": "uint256"
        }
      ],
      "name": "ownerOf",
      "outputs": [
        {
          "internalType": "address",
          "name": "",
          "type": "address"
        }
      ],
      "stateMutability": "view",
      "type": "function"
    },
    {
      "inputs": [
        {
          "internalType": "address",
          "name": "from",
          "type": "address"
        },
        {
          "internalType": "address",
          "name": "to",
          "type": "address"
        },
        {
          "internalType": "uint256",
          "name": "tokenId",
          "type": "uint256"
        }
      ],
      "name": "safeTransferFrom",
      "outputs": [],
      "stateMutability": "nonpayable",
      "type": "function"
    },
    {
      "inputs": [
        {
          "internalType": "address",
          "name": "from",
          "type": "address"
        },
        {
          "internalType": "address",
          "name": "to",
          "type": "address"
        },
        {
          "internalType": "uint256",
          "name": "tokenId",
          "type": "uint256"
        },
        {
          "internalType": "bytes",
          "name": "data",
          "type": "bytes"
        }
      ],
      "name": "safeTransferFrom",
      "outputs": [],
      "stateMutability": "nonpayable",
      "type": "function"
    },
    {
      "inputs": [
        {
          "internalType": "address",
          "name": "operator",
          "type": "address"
        },
        {
          "internalType": "bool",
          "name": "approved",
          "type": "bool"
        }
      ],
      "name": "setApprovalForAll",
      "outputs": [],
      "stateMutability": "nonpayable",
      "type": "function"
    },
    {
      "inputs": [
        {
          "internalType": "bytes4",
          "name": "interfaceId",
          "type": "bytes4"
        }
      ],
      "name": "supportsInterface",
      "outputs": [
        {
          "internalType": "bool",
          "name": "",
          "type": "bool"
        }
      ],
      "stateMutability": "view",
      "type": "function"
    },
    {
      "inputs": [],
      "name": "symbol",
      "outputs": [
        {
          "internalType": "string",
          "name": "",
          "type": "string"
        }
      ],
      "stateMutability": "view",
      "type": "function"
    },
    {
      "inputs": [
        {
          "internalType": "uint256",
          "name": "tokenId",
          "type": "uint256"
        }
      ],
      "name": "tokenURI",
      "outputs": [
        {
          "internalType": "string",
          "name": "",
          "type": "string"
        }
      ],
      "stateMutability": "view",
      "type": "function"
    },
    {
      "inputs": [
        {
          "internalType": "address",
          "name": "from",
          "type": "address"
        },
        {
          "internalType": "address",
          "name": "to",
          "type": "address"
        },
        {
          "internalType": "uint256",
          "name": "tokenId",
          "type": "uint256"
        }
      ],
      "name": "transferFrom",
      "outputs": [],
      "stateMutability": "nonpayable",
      "type": "function"
    }
  ],
  "bytecode": "0x60806040523480156200001157600080fd5b506040518060400160405280600981526020017f556e697465644e465400000000000000000000000000000000000000000000008152506040518060400160405280600381526020017f555444000000000000000000000000000000000000000000000000000000000081525081600090816200008f91906200043b565b508060019081620000a191906200043b565b505050620000ef6040518060400160405280601e81526020017f54686973206973206d79204e465420636f6e74726163742e2057686f61210000815250620000f560201b62000aed1760201c565b620005d5565b62000195816040516024016200010c9190620005b1565b6040516020818303038152906040527f41304fac000000000000000000000000000000000000000000000000000000007bffffffffffffffffffffffffffffffffffffffffffffffffffffffff19166020820180517bffffffffffffffffffffffffffffffffffffffffffffffffffffffff83818316178352505050506200019860201b60201c565b50565b60008151905060006a636f6e736f6c652e6c6f679050602083016000808483855afa5050505050565b600081519050919050565b7f4e487b7100000000000000000000000000000000000000000000000000000000600052604160045260246000fd5b7f4e487b7100000000000000000000000000000000000000000000000000000000600052602260045260246000fd5b600060028204905060018216806200024357607f821691505b602082108103620002595762000258620001fb565b5b50919050565b60008190508160005260206000209050919050565b60006020601f8301049050919050565b600082821b905092915050565b600060088302620002c37fffffffffffffffffffffffffffffffffffffffffffffffffffffffffffffffff8262000284565b620002cf868362000284565b95508019841693508086168417925050509392505050565b6000819050919050565b6000819050919050565b60006200031c620003166200031084620002e7565b620002f1565b620002e7565b9050919050565b6000819050919050565b6200033883620002fb565b62000350620003478262000323565b84845462000291565b825550505050565b600090565b6200036762000358565b620003748184846200032d565b505050565b5b818110156200039c57620003906000826200035d565b6001810190506200037a565b5050565b601f821115620003eb57620003b5816200025f565b620003c08462000274565b81016020851015620003d0578190505b620003e8620003df8562000274565b83018262000379565b50505b505050565b600082821c905092915050565b60006200041060001984600802620003f0565b1980831691505092915050565b60006200042b8383620003fd565b9150826002028217905092915050565b6200044682620001c1565b67ffffffffffffffff811115620004625762000461620001cc565b5b6200046e82546200022a565b6200047b828285620003a0565b600060209050601f831160018114620004b357600084156200049e578287015190505b620004aa85826200041d565b8655506200051a565b601f198416620004c3866200025f565b60005b82811015620004ed57848901518255600182019150602085019450602081019050620004c6565b868310156200050d578489015162000509601f891682620003fd565b8355505b6001600288020188555050505b505050505050565b600082825260208201905092915050565b60005b838110156200055357808201518184015260208101905062000536565b60008484015250505050565b6000601f19601f8301169050919050565b60006200057d82620001c1565b62000589818562000522565b93506200059b81856020860162000533565b620005a6816200055f565b840191505092915050565b60006020820190508181036000830152620005cd818462000570565b905092915050565b612c1a80620005e56000396000f3fe608060405234801561001057600080fd5b50600436106100ea5760003560e01c806370a082311161008c578063b88d4fde11610066578063b88d4fde1461025b578063c87b56dd14610277578063de9d132f146102a7578063e985e9c5146102b1576100ea565b806370a08231146101f157806395d89b4114610221578063a22cb4651461023f576100ea565b8063095ea7b3116100c8578063095ea7b31461016d57806323b872dd1461018957806342842e0e146101a55780636352211e146101c1576100ea565b806301ffc9a7146100ef57806306fdde031461011f578063081812fc1461013d575b600080fd5b610109600480360381019061010491906119d5565b6102e1565b6040516101169190611a1d565b60405180910390f35b6101276103c3565b6040516101349190611ac8565b60405180910390f35b61015760048036038101906101529190611b20565b610455565b6040516101649190611b8e565b60405180910390f35b61018760048036038101906101829190611bd5565b61049b565b005b6101a3600480360381019061019e9190611c15565b6105b2565b005b6101bf60048036038101906101ba9190611c15565b610612565b005b6101db60048036038101906101d69190611b20565b610632565b6040516101e89190611b8e565b60405180910390f35b61020b60048036038101906102069190611c68565b6106e3565b6040516102189190611ca4565b60405180910390f35b61022961079a565b6040516102369190611ac8565b60405180910390f35b61025960048036038101906102549190611ceb565b61082c565b005b61027560048036038101906102709190611e60565b610842565b005b610291600480360381019061028c9190611b20565b6108a4565b60405161029e9190611ac8565b60405180910390f35b6102af6109b6565b005b6102cb60048036038101906102c69190611ee3565b610a59565b6040516102d89190611a1d565b60405180910390f35b60007f80ac58cd000000000000000000000000000000000000000000000000000000007bffffffffffffffffffffffffffffffffffffffffffffffffffffffff1916827bffffffffffffffffffffffffffffffffffffffffffffffffffffffff191614806103ac57507f5b5e139f000000000000000000000000000000000000000000000000000000007bffffffffffffffffffffffffffffffffffffffffffffffffffffffff1916827bffffffffffffffffffffffffffffffffffffffffffffffffffffffff1916145b806103bc57506103bb82610b86565b5b9050919050565b6060600080546103d290611f52565b80601f01602080910402602001604051908101604052809291908181526020018280546103fe90611f52565b801561044b5780601f106104205761010080835404028352916020019161044b565b820191906000526020600020905b81548152906001019060200180831161042e57829003601f168201915b5050505050905090565b600061046082610bf0565b6004600083815260200190815260200160002060009054906101000a900473ffffffffffffffffffffffffffffffffffffffff169050919050565b60006104a682610632565b90508073ffffffffffffffffffffffffffffffffffffffff168373ffffffffffffffffffffffffffffffffffffffff1603610516576040517f08c379a000000000000000000000000000000000000000000000000000000000815260040161050d90611ff5565b60405180910390fd5b8073ffffffffffffffffffffffffffffffffffffffff16610535610c3b565b73ffffffffffffffffffffffffffffffffffffffff16148061056457506105638161055e610c3b565b610a59565b5b6105a3576040517f08c379a000000000000000000000000000000000000000000000000000000000815260040161059a90612087565b60405180910390fd5b6105ad8383610c43565b505050565b6105c36105bd610c3b565b82610cfc565b610602576040517f08c379a00000000000000000000000000000000000000000000000000000000081526004016105f990612119565b60405180910390fd5b61060d838383610d91565b505050565b61062d83838360405180602001604052806000815250610842565b505050565b6000806002600084815260200190815260200160002060009054906101000a900473ffffffffffffffffffffffffffffffffffffffff169050600073ffffffffffffffffffffffffffffffffffffffff168173ffffffffffffffffffffffffffffffffffffffff16036106da576040517f08c379a00000000000000000000000000000000000000000000000000000000081526004016106d190612185565b60405180910390fd5b80915050919050565b60008073ffffffffffffffffffffffffffffffffffffffff168273ffffffffffffffffffffffffffffffffffffffff1603610753576040517f08c379a000000000000000000000000000000000000000000000000000000000815260040161074a90612217565b60405180910390fd5b600360008373ffffffffffffffffffffffffffffffffffffffff1673ffffffffffffffffffffffffffffffffffffffff168152602001908152602001600020549050919050565b6060600180546107a990611f52565b80601f01602080910402602001604051908101604052809291908181526020018280546107d590611f52565b80156108225780601f106107f757610100808354040283529160200191610822565b820191906000526020600020905b81548152906001019060200180831161080557829003601f168201915b5050505050905090565b61083e610837610c3b565b8383610ff7565b5050565b61085361084d610c3b565b83610cfc565b610892576040517f08c379a000000000000000000000000000000000000000000000000000000000815260040161088990612119565b60405180910390fd5b61089e84848484611163565b50505050565b60606108af82610bf0565b60006006600084815260200190815260200160002080546108cf90611f52565b80601f01602080910402602001604051908101604052809291908181526020018280546108fb90611f52565b80156109485780601f1061091d57610100808354040283529160200191610948565b820191906000526020600020905b81548152906001019060200180831161092b57829003601f168201915b5050505050905060006109596111bf565b9050600081510361096e5781925050506109b1565b6000825111156109a357808260405160200161098b929190612273565b604051602081830303815290604052925050506109b1565b6109ac846111d6565b925050505b919050565b60006109c2600761123e565b90506109ce338261124c565b6109f081604051806060016040528060358152602001612bb06035913961126a565b610a13604051806060016040528060258152602001612b8b6025913982336112d7565b610a1d6007611376565b7febb98688741ffa4c7589bf325de30cf7becb63de567842e1ccdb6cb949fdc82c3382604051610a4e929190612297565b60405180910390a150565b6000600560008473ffffffffffffffffffffffffffffffffffffffff1673ffffffffffffffffffffffffffffffffffffffff16815260200190815260200160002060008373ffffffffffffffffffffffffffffffffffffffff1673ffffffffffffffffffffffffffffffffffffffff16815260200190815260200160002060009054906101000a900460ff16905092915050565b610b8381604051602401610b019190611ac8565b6040516020818303038152906040527f41304fac000000000000000000000000000000000000000000000000000000007bffffffffffffffffffffffffffffffffffffffffffffffffffffffff19166020820180517bffffffffffffffffffffffffffffffffffffffffffffffffffffffff838183161783525050505061138c565b50565b60007f01ffc9a7000000000000000000000000000000000000000000000000000000007bffffffffffffffffffffffffffffffffffffffffffffffffffffffff1916827bffffffffffffffffffffffffffffffffffffffffffffffffffffffff1916149050919050565b610bf9816113b5565b610c38576040517f08c379a0000000000000000000000000000000000000000000000000000000008152600401610c2f90612185565b60405180910390fd5b50565b600033905090565b816004600083815260200190815260200160002060006101000a81548173ffffffffffffffffffffffffffffffffffffffff021916908373ffffffffffffffffffffffffffffffffffffffff160217905550808273ffffffffffffffffffffffffffffffffffffffff16610cb683610632565b73ffffffffffffffffffffffffffffffffffffffff167f8c5be1e5ebec7d5bd14f71427d1e84f3dd0314c0f7b2291e5b200ac8c7c3b92560405160405180910390a45050565b600080610d0883610632565b90508073ffffffffffffffffffffffffffffffffffffffff168473ffffffffffffffffffffffffffffffffffffffff161480610d4a5750610d498185610a59565b5b80610d8857508373ffffffffffffffffffffffffffffffffffffffff16610d7084610455565b73ffffffffffffffffffffffffffffffffffffffff16145b91505092915050565b8273ffffffffffffffffffffffffffffffffffffffff16610db182610632565b73ffffffffffffffffffffffffffffffffffffffff1614610e07576040517f08c379a0000000000000000000000000000000000000000000000000000000008152600401610dfe90612332565b60405180910390fd5b600073ffffffffffffffffffffffffffffffffffffffff168273ffffffffffffffffffffffffffffffffffffffff1603610e76576040517f08c379a0000000000000000000000000000000000000000000000000000000008152600401610e6d906123c4565b60405180910390fd5b610e81838383611421565b610e8c600082610c43565b6001600360008573ffffffffffffffffffffffffffffffffffffffff1673ffffffffffffffffffffffffffffffffffffffff1681526020019081526020016000206000828254610edc9190612413565b925050819055506001600360008473ffffffffffffffffffffffffffffffffffffffff1673ffffffffffffffffffffffffffffffffffffffff1681526020019081526020016000206000828254610f339190612447565b92505081905550816002600083815260200190815260200160002060006101000a81548173ffffffffffffffffffffffffffffffffffffffff021916908373ffffffffffffffffffffffffffffffffffffffff160217905550808273ffffffffffffffffffffffffffffffffffffffff168473ffffffffffffffffffffffffffffffffffffffff167fddf252ad1be2c89b69c2b068fc378daa952ba7f163c4a11628f55a4df523b3ef60405160405180910390a4610ff2838383611426565b505050565b8173ffffffffffffffffffffffffffffffffffffffff168373ffffffffffffffffffffffffffffffffffffffff1603611065576040517f08c379a000000000000000000000000000000000000000000000000000000000815260040161105c906124c7565b60405180910390fd5b80600560008573ffffffffffffffffffffffffffffffffffffffff1673ffffffffffffffffffffffffffffffffffffffff16815260200190815260200160002060008473ffffffffffffffffffffffffffffffffffffffff1673ffffffffffffffffffffffffffffffffffffffff16815260200190815260200160002060006101000a81548160ff0219169083151502179055508173ffffffffffffffffffffffffffffffffffffffff168373ffffffffffffffffffffffffffffffffffffffff167f17307eab39ab6107e8899845ad3d59bd9653f200f220920489ca2b5937696c31836040516111569190611a1d565b60405180910390a3505050565b61116e848484610d91565b61117a8484848461142b565b6111b9576040517f08c379a00000000000000000000000000000000000000000000000000000000081526004016111b090612559565b60405180910390fd5b50505050565b606060405180602001604052806000815250905090565b60606111e182610bf0565b60006111eb6111bf565b9050600081511161120b5760405180602001604052806000815250611236565b80611215846115b2565b604051602001611226929190612273565b6040516020818303038152906040525b915050919050565b600081600001549050919050565b611266828260405180602001604052806000815250611712565b5050565b611273826113b5565b6112b2576040517f08c379a00000000000000000000000000000000000000000000000000000000081526004016112a9906125eb565b60405180910390fd5b806006600084815260200190815260200160002090816112d291906127b7565b505050565b6113718383836040516024016112ef93929190612889565b6040516020818303038152906040527f1c7ec448000000000000000000000000000000000000000000000000000000007bffffffffffffffffffffffffffffffffffffffffffffffffffffffff19166020820180517bffffffffffffffffffffffffffffffffffffffffffffffffffffffff838183161783525050505061138c565b505050565b6001816000016000828254019250508190555050565b60008151905060006a636f6e736f6c652e6c6f679050602083016000808483855afa5050505050565b60008073ffffffffffffffffffffffffffffffffffffffff166002600084815260200190815260200160002060009054906101000a900473ffffffffffffffffffffffffffffffffffffffff1673ffffffffffffffffffffffffffffffffffffffff1614159050919050565b505050565b505050565b600061144c8473ffffffffffffffffffffffffffffffffffffffff1661176d565b156115a5578373ffffffffffffffffffffffffffffffffffffffff1663150b7a02611475610c3b565b8786866040518563ffffffff1660e01b8152600401611497949392919061291c565b6020604051808303816000875af19250505080156114d357506040513d601f19601f820116820180604052508101906114d0919061297d565b60015b611555573d8060008114611503576040519150601f19603f3d011682016040523d82523d6000602084013e611508565b606091505b50600081510361154d576040517f08c379a000000000000000000000000000000000000000000000000000000000815260040161154490612559565b60405180910390fd5b805181602001fd5b63150b7a0260e01b7bffffffffffffffffffffffffffffffffffffffffffffffffffffffff1916817bffffffffffffffffffffffffffffffffffffffffffffffffffffffff1916149150506115aa565b600190505b949350505050565b6060600082036115f9576040518060400160405280600181526020017f3000000000000000000000000000000000000000000000000000000000000000815250905061170d565b600082905060005b6000821461162b578080611614906129aa565b915050600a826116249190612a21565b9150611601565b60008167ffffffffffffffff81111561164757611646611d35565b5b6040519080825280601f01601f1916602001820160405280156116795781602001600182028036833780820191505090505b5090505b60008514611706576001826116929190612413565b9150600a856116a19190612a52565b60306116ad9190612447565b60f81b8183815181106116c3576116c2612a83565b5b60200101907effffffffffffffffffffffffffffffffffffffffffffffffffffffffffffff1916908160001a905350600a856116ff9190612a21565b945061167d565b8093505050505b919050565b61171c8383611790565b611729600084848461142b565b611768576040517f08c379a000000000000000000000000000000000000000000000000000000000815260040161175f90612559565b60405180910390fd5b505050565b6000808273ffffffffffffffffffffffffffffffffffffffff163b119050919050565b600073ffffffffffffffffffffffffffffffffffffffff168273ffffffffffffffffffffffffffffffffffffffff16036117ff576040517f08c379a00000000000000000000000000000000000000000000000000000000081526004016117f690612afe565b60405180910390fd5b611808816113b5565b15611848576040517f08c379a000000000000000000000000000000000000000000000000000000000815260040161183f90612b6a565b60405180910390fd5b61185460008383611421565b6001600360008473ffffffffffffffffffffffffffffffffffffffff1673ffffffffffffffffffffffffffffffffffffffff16815260200190815260200160002060008282546118a49190612447565b92505081905550816002600083815260200190815260200160002060006101000a81548173ffffffffffffffffffffffffffffffffffffffff021916908373ffffffffffffffffffffffffffffffffffffffff160217905550808273ffffffffffffffffffffffffffffffffffffffff16600073ffffffffffffffffffffffffffffffffffffffff167fddf252ad1be2c89b69c2b068fc378daa952ba7f163c4a11628f55a4df523b3ef60405160405180910390a461196560008383611426565b5050565b6000604051905090565b600080fd5b600080fd5b60007fffffffff0000000000000000000000000000000000000000000000000000000082169050919050565b6119b28161197d565b81146119bd57600080fd5b50565b6000813590506119cf816119a9565b92915050565b6000602082840312156119eb576119ea611973565b5b60006119f9848285016119c0565b91505092915050565b60008115159050919050565b611a1781611a02565b82525050565b6000602082019050611a326000830184611a0e565b92915050565b600081519050919050565b600082825260208201905092915050565b60005b83811015611a72578082015181840152602081019050611a57565b60008484015250505050565b6000601f19601f8301169050919050565b6000611a9a82611a38565b611aa48185611a43565b9350611ab4818560208601611a54565b611abd81611a7e565b840191505092915050565b60006020820190508181036000830152611ae28184611a8f565b905092915050565b6000819050919050565b611afd81611aea565b8114611b0857600080fd5b50565b600081359050611b1a81611af4565b92915050565b600060208284031215611b3657611b35611973565b5b6000611b4484828501611b0b565b91505092915050565b600073ffffffffffffffffffffffffffffffffffffffff82169050919050565b6000611b7882611b4d565b9050919050565b611b8881611b6d565b82525050565b6000602082019050611ba36000830184611b7f565b92915050565b611bb281611b6d565b8114611bbd57600080fd5b50565b600081359050611bcf81611ba9565b92915050565b60008060408385031215611bec57611beb611973565b5b6000611bfa85828601611bc0565b9250506020611c0b85828601611b0b565b9150509250929050565b600080600060608486031215611c2e57611c2d611973565b5b6000611c3c86828701611bc0565b9350506020611c4d86828701611bc0565b9250506040611c5e86828701611b0b565b9150509250925092565b600060208284031215611c7e57611c7d611973565b5b6000611c8c84828501611bc0565b91505092915050565b611c9e81611aea565b82525050565b6000602082019050611cb96000830184611c95565b92915050565b611cc881611a02565b8114611cd357600080fd5b50565b600081359050611ce581611cbf565b92915050565b60008060408385031215611d0257611d01611973565b5b6000611d1085828601611bc0565b9250506020611d2185828601611cd6565b9150509250929050565b600080fd5b600080fd5b7f4e487b7100000000000000000000000000000000000000000000000000000000600052604160045260246000fd5b611d6d82611a7e565b810181811067ffffffffffffffff82111715611d8c57611d8b611d35565b5b80604052505050565b6000611d9f611969565b9050611dab8282611d64565b919050565b600067ffffffffffffffff821115611dcb57611dca611d35565b5b611dd482611a7e565b9050602081019050919050565b82818337600083830152505050565b6000611e03611dfe84611db0565b611d95565b905082815260208101848484011115611e1f57611e1e611d30565b5b611e2a848285611de1565b509392505050565b600082601f830112611e4757611e46611d2b565b5b8135611e57848260208601611df0565b91505092915050565b60008060008060808587031215611e7a57611e79611973565b5b6000611e8887828801611bc0565b9450506020611e9987828801611bc0565b9350506040611eaa87828801611b0b565b925050606085013567ffffffffffffffff811115611ecb57611eca611978565b5b611ed787828801611e32565b91505092959194509250565b60008060408385031215611efa57611ef9611973565b5b6000611f0885828601611bc0565b9250506020611f1985828601611bc0565b9150509250929050565b7f4e487b7100000000000000000000000000000000000000000000000000000000600052602260045260246000fd5b60006002820490506001821680611f6a57607f821691505b602082108103611f7d57611f7c611f23565b5b50919050565b7f4552433732313a20617070726f76616c20746f2063757272656e74206f776e6560008201527f7200000000000000000000000000000000000000000000000000000000000000602082015250565b6000611fdf602183611a43565b9150611fea82611f83565b604082019050919050565b6000602082019050818103600083015261200e81611fd2565b9050919050565b7f4552433732313a20617070726f76652063616c6c6572206973206e6f7420746f60008201527f6b656e206f776e6572206e6f7220617070726f76656420666f7220616c6c0000602082015250565b6000612071603e83611a43565b915061207c82612015565b604082019050919050565b600060208201905081810360008301526120a081612064565b9050919050565b7f4552433732313a2063616c6c6572206973206e6f7420746f6b656e206f776e6560008201527f72206e6f7220617070726f766564000000000000000000000000000000000000602082015250565b6000612103602e83611a43565b915061210e826120a7565b604082019050919050565b60006020820190508181036000830152612132816120f6565b9050919050565b7f4552433732313a20696e76616c696420746f6b656e2049440000000000000000600082015250565b600061216f601883611a43565b915061217a82612139565b602082019050919050565b6000602082019050818103600083015261219e81612162565b9050919050565b7f4552433732313a2061646472657373207a65726f206973206e6f74206120766160008201527f6c6964206f776e65720000000000000000000000000000000000000000000000602082015250565b6000612201602983611a43565b915061220c826121a5565b604082019050919050565b60006020820190508181036000830152612230816121f4565b9050919050565b600081905092915050565b600061224d82611a38565b6122578185612237565b9350612267818560208601611a54565b80840191505092915050565b600061227f8285612242565b915061228b8284612242565b91508190509392505050565b60006040820190506122ac6000830185611b7f565b6122b96020830184611c95565b9392505050565b7f4552433732313a207472616e736665722066726f6d20696e636f72726563742060008201527f6f776e6572000000000000000000000000000000000000000000000000000000602082015250565b600061231c602583611a43565b9150612327826122c0565b604082019050919050565b6000602082019050818103600083015261234b8161230f565b9050919050565b7f4552433732313a207472616e7366657220746f20746865207a65726f2061646460008201527f7265737300000000000000000000000000000000000000000000000000000000602082015250565b60006123ae602483611a43565b91506123b982612352565b604082019050919050565b600060208201905081810360008301526123dd816123a1565b9050919050565b7f4e487b7100000000000000000000000000000000000000000000000000000000600052601160045260246000fd5b600061241e82611aea565b915061242983611aea565b9250828203905081811115612441576124406123e4565b5b92915050565b600061245282611aea565b915061245d83611aea565b9250828201905080821115612475576124746123e4565b5b92915050565b7f4552433732313a20617070726f766520746f2063616c6c657200000000000000600082015250565b60006124b1601983611a43565b91506124bc8261247b565b602082019050919050565b600060208201905081810360008301526124e0816124a4565b9050919050565b7f4552433732313a207472616e7366657220746f206e6f6e20455243373231526560008201527f63656976657220696d706c656d656e7465720000000000000000000000000000602082015250565b6000612543603283611a43565b915061254e826124e7565b604082019050919050565b6000602082019050818103600083015261257281612536565b9050919050565b7f45524337323155524953746f726167653a2055524920736574206f66206e6f6e60008201527f6578697374656e7420746f6b656e000000000000000000000000000000000000602082015250565b60006125d5602e83611a43565b91506125e082612579565b604082019050919050565b60006020820190508181036000830152612604816125c8565b9050919050565b60008190508160005260206000209050919050565b60006020601f8301049050919050565b600082821b905092915050565b60006008830261266d7fffffffffffffffffffffffffffffffffffffffffffffffffffffffffffffffff82612630565b6126778683612630565b95508019841693508086168417925050509392505050565b6000819050919050565b60006126b46126af6126aa84611aea565b61268f565b611aea565b9050919050565b6000819050919050565b6126ce83612699565b6126e26126da826126bb565b84845461263d565b825550505050565b600090565b6126f76126ea565b6127028184846126c5565b505050565b5b818110156127265761271b6000826126ef565b600181019050612708565b5050565b601f82111561276b5761273c8161260b565b61274584612620565b81016020851015612754578190505b61276861276085612620565b830182612707565b50505b505050565b600082821c905092915050565b600061278e60001984600802612770565b1980831691505092915050565b60006127a7838361277d565b9150826002028217905092915050565b6127c082611a38565b67ffffffffffffffff8111156127d9576127d8611d35565b5b6127e38254611f52565b6127ee82828561272a565b600060209050601f831160018114612821576000841561280f578287015190505b612819858261279b565b865550612881565b601f19841661282f8661260b565b60005b8281101561285757848901518255600182019150602085019450602081019050612832565b868310156128745784890151612870601f89168261277d565b8355505b6001600288020188555050505b505050505050565b600060608201905081810360008301526128a38186611a8f565b90506128b26020830185611c95565b6128bf6040830184611b7f565b949350505050565b600081519050919050565b600082825260208201905092915050565b60006128ee826128c7565b6128f881856128d2565b9350612908818560208601611a54565b61291181611a7e565b840191505092915050565b60006080820190506129316000830187611b7f565b61293e6020830186611b7f565b61294b6040830185611c95565b818103606083015261295d81846128e3565b905095945050505050565b600081519050612977816119a9565b92915050565b60006020828403121561299357612992611973565b5b60006129a184828501612968565b91505092915050565b60006129b582611aea565b91507fffffffffffffffffffffffffffffffffffffffffffffffffffffffffffffffff82036129e7576129e66123e4565b5b600182019050919050565b7f4e487b7100000000000000000000000000000000000000000000000000000000600052601260045260246000fd5b6000612a2c82611aea565b9150612a3783611aea565b925082612a4757612a466129f2565b5b828204905092915050565b6000612a5d82611aea565b9150612a6883611aea565b925082612a7857612a776129f2565b5b828206905092915050565b7f4e487b7100000000000000000000000000000000000000000000000000000000600052603260045260246000fd5b7f4552433732313a206d696e7420746f20746865207a65726f2061646472657373600082015250565b6000612ae8602083611a43565b9150612af382612ab2565b602082019050919050565b60006020820190508181036000830152612b1781612adb565b9050919050565b7f4552433732313a20746f6b656e20616c7265616479206d696e74656400000000600082015250565b6000612b54601c83611a43565b9150612b5f82612b1e565b602082019050919050565b60006020820190508181036000830152612b8381612b47565b905091905056fe416e204e465420772f20494420257320686173206265656e206d696e74656420746f202573697066733a2f2f516d525142614a4868647365413846757975327a6f717075746a366a766f4b364b667336634e703237375241415aa26469706673582212201eb6daa16fe81d1d4970431e5425a60eff74c31b9eb846b1923e068b28b8b59064736f6c63430008110033",
  "linkReferences": {},
  "deployedLinkReferences": {}
}